:020000040000FA
:100000000C9462000C948A000C948A000C948A0070
:100010000C948A000C948A000C948A000C948A0038
:100020000C948A000C948A000C948A000C948A0028
:100030000C948A000C948A000C948A000C948A0018
:100040000C9498060C948A000C9466060C94400656
:100050000C948A000C948A000C948A000C948A00F8
:100060000C948A000C948A000000000023002600F3
:10007000290000000000240027002A0000000000E2
:10008000250028002B0004040404040404040202D4
:100090000202020203030303030301020408102007
:1000A0004080010204081020010204081020000012
:1000B0000008000201000003040700000000000027
:1000C0000000E20611241FBECFEFD8E0DEBFCDBF97
:1000D00011E0A0E0B1E0E0ECF1E102C005900D928A
:1000E000AE3AB107D9F722E0AEEAB1E001C01D9205
:1000F000AF35B207E1F710E0C2E6D0E004C02197C7
:10010000FE010E94D308C136D107C9F70E9431070A
:100110000C94DE080C940000AF92BF92CF92DF9255
:10012000EF92FF920F931F93CF93DF936C017B01AC
:100130008B01040F151FEB015E01AE18BF08C0173D
:10014000D10759F06991D601ED91FC910190F081B0
:10015000E02DC6010995892B79F7C501DF91CF9173
:100160001F910F91FF90EF90DF90CF90BF90AF90D5
:100170000895FC01538D448D252F30E0842F90E0AD
:10018000821B930B541710F0CF9608950197089592
:10019000FC01918D828D981761F0A28DAE0FBF2F5B
:1001A000B11D5D968C91928D9F5F9F73928F90E0B1
:1001B00008958FEF9FEF0895FC01918D828D981720
:1001C00031F0828DE80FF11D858D90E008958FEF5D
:1001D0009FEF0895FC01918D228D892F90E0805C26
:1001E0009F4F821B91098F739927089587EB91E0A8
:1001F0000E94EA0021E0892B09F420E0822F089573
:1002000080E090E0892B29F00E94F60081110C9487
:1002100000000895FC01A48DA80FB92FB11DA35AA9
:10022000BF4F2C91848D90E001968F739927848F16
:10023000A689B7892C93A089B1898C918370806439
:100240008C93938D848D981306C00288F389E02DDA
:1002500080818F7D80830895EF92FF920F931F938B
:10026000CF93DF93EC0181E0888F9B8D8C8D981369
:100270001AC0E889F989808185FF15C09FB7F89475
:10028000EE89FF896083E889F989808183708064C1
:1002900080839FBF81E090E0DF91CF911F910F910C
:1002A000FF90EF900895F62E0B8D10E00F5F1F4F1B
:1002B0000F731127E02E8C8D8E110CC00FB607FC2A
:1002C000FACFE889F989808185FFF5CFCE010E94B8
:1002D0000A01F1CFEB8DEC0FFD2FF11DE35AFF4F1B
:1002E000F0829FB7F8940B8FEA89FB898081806246
:1002F000CFCFCF93DF93EC01888D8823B9F0AA8903
:10030000BB89E889F9898C9185FD03C0808186FDD0
:100310000DC00FB607FCF7CF8C9185FFF2CF80811F
:1003200085FFEDCFCE010E940A01E9CFDF91CF9189
:10033000089590E0FC01E255FF4F2491FC01E65640
:10034000FF4F3491FC01EA57FF4FE491EE23C9F0CF
:10035000222339F0233001F1A8F4213019F12230A1
:1003600029F1F0E0EE0FFF1FE458FF4FA591B49183
:100370008FB7F894EC91611126C030953E233C93E1
:100380008FBF08952730A9F02830C9F0243049F7ED
:10039000809180008F7D03C0809180008F77809353
:1003A0008000DFCF84B58F7784BDDBCF84B58F7DB0
:1003B000FBCF8091B0008F778093B000D2CF809137
:1003C000B0008F7DF9CF3E2BDACFCF93DF9390E053
:1003D000FC01E656FF4F24918A579F4FFC01849100
:1003E0008823C9F090E0880F991FFC01EE58FF4F59
:1003F000A591B491FC01E458FF4FC591D4916111CE
:100400000DC09FB7F8948C91209582238C9388819E
:10041000282328839FBFDF91CF910895623051F444
:100420009FB7F8943C91822F809583238C93E88129
:100430002E2BEFCF8FB7F894EC912E2B2C938FBFF0
:10044000EACF3FB7F8948091B3019091B401A091A5
:10045000B501B091B60126B5A89B05C02F3F19F094
:100460000196A11DB11D3FBFBA2FA92F982F882734
:10047000BC01CD01620F711D811D911D42E0660F0F
:10048000771F881F991F4A95D1F708958F929F92E1
:10049000AF92BF92CF92DF92EF92FF924B015C013D
:1004A0000E9421026B017C010E9421026C197D09CE
:1004B0008E099F09683E734081059105A8F321E0EC
:1004C000821A9108A108B10888EEC80E83E0D81EF0
:1004D000E11CF11C81149104A104B10429F7FF90DF
:1004E000EF90DF90CF90BF90AF909F908F90089546
:1004F000CF92DF92EF92FF920F931F93CF93DF93F0
:10050000EC017A016901E881F9810190F081E02D27
:100510000995E881F9810084F185E02D9801A60113
:10052000B701CE01DF91CF911F910F91FF90EF9016
:10053000DF90CF9009946F927F928F929F92AF92AB
:10054000BF92CF92DF92EF92FF920F931F93CF93C0
:10055000DF93CDB7DEB729970FB6F894DEBF0FBE95
:10056000CDBFDC011696ED91FC91319609F480C067
:1005700059013A016B018C01FE0131964F0185E072
:10058000DF011D928A95E9F7D801ED91FC9104886D
:10059000F589E02DB401C80109957C01892B09F08A
:1005A00051C01F821E8219861886D801ED91FC91D8
:1005B0000688F789E02D9E01285F3F4FAE014A5F14
:1005C0005F4FB401C80109957C01892BD9F5A114AD
:1005D000B10439F085E0F401D50101900D928A95BE
:1005E000E1F70E811F81C114D10479F0612F7727C3
:1005F00067FD7A95072E000C880B990B0E944D0819
:10060000F60160837183828393836114710489F09E
:100610008985682F782F770F770B072E000C880BB2
:10062000990B0E944D08D3016D937D938D939C93FC
:100630001397012B39F488859985892B19F496E154
:10064000E92EF12CC70129960FB6F894DEBF0FBE34
:10065000CDBFDF91CF911F910F91FF90EF90DF9071
:10066000CF90BF90AF909F908F907F906F900895A4
:1006700087E1E82EF12CE6CF8F929F92AF92BF9246
:10068000CF92DF92EF92FF920F931F93CF93DF935E
:10069000EC018B016A017901E881F9810288F38913
:1006A000E02DDB016C910995B82EE881F981028873
:1006B000F389E02DD80111966C91CE010995982E01
:1006C000E881F9810288F389E02DD80112966C91B6
:1006D000CE010995A82EE881F9810288F389E02DE1
:1006E000D80113966C91CE010995882EE881F98185
:1006F0000288F389E02DD80114966C91CE010995FA
:100700009B2D990D9A0D980D891319C09A2D882D3E
:10071000F601918380839B2D892DD7018D939C9326
:1007200090E080E0DF91CF911F910F91FF90EF90CB
:10073000DF90CF90BF90AF909F908F90089585E10C
:1007400090E0F0CF629570E09B0135952795359547
:1007500027952373660F771F660F771F6C7C262BF8
:1007600030E0C901959587958575220F331F2A7A48
:10077000822B08953F924F925F926F927F928F9259
:100780009F92AF92BF92CF92DF92EF92FF920F9320
:100790001F93CF93DF93EC01162F7A0169010E941A
:1007A00021024B015C01312C111139843601660C98
:1007B000771C660C771C85E0681A71082701440CC9
:1007C000551C440C551C85E0481A510810E000E007
:1007D00060E070E0CB012A813B814C815D8126176E
:1007E0003707480759070CF10115110599F582E003
:1007F000E816F1041CF0C2010197F1F70E942102F2
:10080000681979098A099B09EA85F0E0EE0FFF1F54
:10081000E859FF4FA591B4912C910F5F1F4F398577
:100820002323231105C097FFD6CF6FEF7FEFCB01B6
:10083000DF91CF911F910F91FF90EF90DF90CF90BC
:10084000BF90AF909F908F907F906F905F904F90F0
:100850003F90089582E0C816D10484F2C301CCCF42
:10086000FC01828590E00895FC01818590E0089567
:10087000CF92DF92EF92FF920F931F93CF93DF936C
:10088000EC017A016901E881F9810190F081E02DA4
:100890000995E881F9810480F581E02D9801A60190
:1008A000B701CE01DF91CF911F910F91FF90EF9093
:1008B000DF90CF900994CF92DF92EF92FF920F9347
:1008C0001F93CF93DF93CDB7DEB728970FB6F89479
:1008D000DEBF0FBECDBFDC011696ED91FC913196C7
:1008E00009F440C08A017B0119821A821B821C8292
:1008F0001D821E821F821886DC01ED91FC9100840E
:10090000F185E02DAE014B5F5F4FBE016F5F7F4F02
:1009100009956C01892BB1F4E114F10441F069816E
:100920007A818B819C810E941508F70160830115F3
:10093000110541F06D817E818F8198850E94150897
:10094000D8016C93C60128960FB6F894DEBF0FBE8F
:10095000CDBFDF91CF911F910F91FF90EF90DF906E
:10096000CF90089587E1C82ED12CECCF262F2D7F74
:1009700029F4FC01608790E080E0089588E190E030
:100980000895DC0117967C936E931697FB01E6564B
:10099000FF4FE4911996EC9319976A577F4FFB012B
:1009A00064911A966C930895FC0101900020E9F778
:1009B0003197AF01481B590BBC0187EB91E00C94B8
:1009C0008C008F929F92AF92BF920F931F93CF9301
:1009D000DF93CDB7DEB7A1970FB6F894DEBF0FBE99
:1009E000CDBF19A2423008F44AE08E010F5D1F4FBF
:1009F000842E912CB12CA12CA50194010E94B10848
:100A0000E62FB901CA01EA30F4F4E05DD801EE93B3
:100A10008D01232B242B252B79F790E080E0109774
:100A200019F0CD010E94D404A1960FB6F894DEBF50
:100A30000FBECDBFDF91CF911F910F91BF90AF90AF
:100A40009F908F900895E95CE1CFCF93DF930E9450
:100A5000D404EC018AE491E00E94D4048C0F9D1F21
:100A6000DF91CF910895CF92DF92EF92FF92CF93D3
:100A7000DF9397FF1BC06B017C016DE287EB91E078
:100A80000E942C01EC0166277727CB016C197D09A8
:100A90008E099F094AE00E94E1048C0F9D1FDF919F
:100AA000CF91FF90EF90DF90CF9008954AE0DF91D3
:100AB000CF91FF90EF90DF90CF900C94E1040E94D3
:100AC000D9084F925F926F927F928F929F92AF92CE
:100AD000BF92EF92FF920F931F93CF93DF93EC019E
:100AE0007B0185E0FB0111928A95E9F761E08E8137
:100AF0000E94E50160E08E810E94990164E170E04E
:100B000080E090E00E94460261E08E810E9499019F
:100B100068858E810E94E5018FE590E00197F1F7ED
:100B2000E881F9810088F189E02D26E030E04AE093
:100B300050E060E0CE0109956E31710581059105A7
:100B4000ACF4982F872F762F66276061CB01DF9159
:100B5000CF911F910F91FF90EF90BF90AF909F901A
:100B60008F907F906F905F904F900895E881F9810A
:100B70000088F189E02D26E030E04AE050E061E0B5
:100B8000CE010995623371058105910534F4982FE2
:100B9000872F762F66276161D9CF10E000E0812C86
:100BA000912C54018394E881F9810088F189E02D2A
:100BB00026E030E04AE050E060E0CE01099568317F
:100BC00071058105910534F4982F872F762F6627BC
:100BD0006261BCCFE881F9810088F189E02D26E0CF
:100BE00030E04AE050E061E0CE0109956B307105DC
:100BF0008105910534F4982F872F762F662763613E
:100C0000A5CFF80133E0F595E7953A95E1F7EE0DBC
:100C1000FF1D9801277033272401350104C0440CBF
:100C2000551C661C771C2A95D2F720816932710504
:100C300081059105FCF0422A40820F5F1F4F083268
:100C4000110509F0B0CFE881F9810088F189E02D24
:100C500026E030E04AE050E060E0CE0109956831DE
:100C60007105810591054CF4982F872F762F662703
:100C700064616CCF40944222DFCF70E060E066CFC9
:100C80001F920F920FB60F9211242F933F934F9301
:100C90005F936F937F938F939F93AF93BF93EF93E4
:100CA000FF9387EB91E00E940A01FF91EF91BF91C2
:100CB000AF919F918F917F916F915F914F913F91F4
:100CC0002F910F900FBE0F901F9018951F920F92AB
:100CD0000FB60F9211242F938F939F93EF93FF934F
:100CE000E091C701F091C8018081E091CD01F091C0
:100CF000CE0182FD1BC090818091D0018F5F8F73E8
:100D00002091D101821741F0E091D001F0E0E95447
:100D1000FE4F958F8093D001FF91EF919F918F911E
:100D20002F910F900FBE0F901F9018958081F4CFD8
:100D30001F920F920FB60F9211242F933F938F9310
:100D40009F93AF93BF938091AF019091B001A09119
:100D5000B101B091B2013091AE0123E0230F2D37E4
:100D600058F50196A11DB11D2093AE018093AF01EE
:100D70009093B001A093B101B093B2018091B301FF
:100D80009091B401A091B501B091B6010196A11D59
:100D9000B11D8093B3019093B401A093B501B093BA
:100DA000B601BF91AF919F918F913F912F910F907D
:100DB0000FBE0F901F90189526E8230F0296A11DD5
:100DC000B11DD2CFCF93DF93E7EBF1E01382128214
:100DD00088EE93E0A0E0B0E084839583A683B78398
:100DE00084E091E09183808385EC90E0958784870F
:100DF00084EC90E09787868780EC90E0918B808BE5
:100E000081EC90E0938B828B82EC90E0958B848BCD
:100E100086EC90E0978B868B118E128E138E148E3B
:100E2000C4E5D2E086E191E09983888380E291EA8B
:100E3000A7E0B0E08A839B83AC83BD838FEF9FEFF5
:100E40009F838E83188689878A8762E070E0CE014F
:100E50000E94C10482E391E099838883DF91CF915E
:100E60000895CF93DF9300D0CDB7DEB7789484B5E3
:100E7000826084BD84B5816084BD85B5826085BD96
:100E800085B5816085BD80916E00816080936E0024
:100E90001092810080918100826080938100809116
:100EA00081008160809381008091800081608093C7
:100EB00080008091B10084608093B1008091B00087
:100EC00081608093B00080917A00846080937A0082
:100ED00080917A00826080937A0080917A008160AC
:100EE00080937A0080917A00806880937A001092D3
:100EF000C100E091C701F091C80182E08083E091D8
:100F0000C301F091C4011082E091C501F091C601C6
:100F10008FEC80831092CF01E091CB01F091CC0156
:100F200086E08083E091C901F091CA0180818061EF
:100F30008083E091C901F091CA018081886080833B
:100F4000E091C901F091CA01808180688083E091BD
:100F5000C901F091CA0180818F7D808390E0E92EE4
:100F600090E0F92E8DE491E00E9425058FE691E056
:100F70000E9425051A82198230E020E0AE014F5F01
:100F80005F4FBE016E5F7F4F84E592E00E945B047D
:100F90008C01892B69F18FE791E00E94D404B8019C
:100FA0007727072E000C880B990B0E94330587E9E1
:100FB00091E00E94D404012F1127B80190E080E055
:100FC0004AE00E94E1048AE491E00E94D40468EEC1
:100FD00073E080E090E00E944602E114F10411F217
:100FE0000E94F600882309F4BDCF0E940000BACF0A
:100FF00089E991E00E94D4046A8170E090E080E089
:101000000E94330585EA91E00E94D404698170E072
:1010100090E080E00E9433058BEA91E00E94250574
:101020006CED75E080E090E0D6CF0E941C086894DB
:10103000B1110C94AB0808950E94900888F09F5756
:1010400098F0B92F9927B751B0F0E1F0660F771FEC
:10105000881F991F1AF0BA95C9F714C0B13091F0E2
:101060000E94AA08B1E008950C94AA08672F782F6F
:101070008827B85F39F0B93FCCF3869577956795A7
:10108000B395D9F73EF490958095709561957F4F13
:101090008F4F9F4F0895E89409C097FB3EF49095B9
:1010A0008095709561957F4F8F4F9F4F9923A9F041
:1010B000F92F96E9BB279395F695879577956795D0
:1010C000B795F111F8CFFAF4BB0F11F460FF1BC014
:1010D0006F5F7F4F8F4F9F4F16C0882311F096E9A7
:1010E00011C0772321F09EE8872F762F05C0662355
:1010F00071F096E8862F70E060E02AF09A95660F0E
:10110000771F881FDAF7880F9695879597F90895C6
:1011100057FD9058440F551F59F05F3F71F04795A8
:10112000880F97FB991F61F09F3F79F0879508958D
:10113000121613061406551FF2CF4695F1DF08C0AC
:10114000161617061806991FF1CF869571056105C9
:1011500008940895E894BB2766277727CB0197F971
:101160000895A1E21A2EAA1BBB1BFD010DC0AA1FE8
:10117000BB1FEE1FFF1FA217B307E407F50720F000
:10118000A21BB30BE40BF50B661F771F881F991F7B
:101190001A9469F760957095809590959B01AC01C4
:1011A000BD01CF010895EE0FFF1F0590F491E02DD2
:1011B000099481E090E0F8940C94DE08F894FFCF55
:1011C000000000002C018C00B9007901EA00C80081
:1011D000DC0000000000C104B6045B0438045F05B5
:1011E0005F0534043004BA03A2035F053C0300002A
:1011F0000000C104B6045B0438049B027802340486
:101200003004BA03A20361053C030D0A003D3D3DD5
:101210003D3D3D3D3D3D3D3D3D3D3D3D3D3D3D3DFE
:101220003D3D3D3D3D3D3D3D3D3D3D3D3D3D005315
:10123000616D706C652044485431312E2E2E005261
:10124000656164204448543131206661696C65648D
:101250002C206572723D002C0053616D706C65200E
:0E1260004F4B3A2000202A432C20002048004B
:107E0000112484B714BE81FFF0D085E080938100F7
:107E100082E08093C00088E18093C10086E0809377
:107E2000C20080E18093C4008EE0C9D0259A86E02C
:107E300020E33CEF91E0309385002093840096BBD3
:107E4000B09BFECF1D9AA8958150A9F7CC24DD24C4
:107E500088248394B5E0AB2EA1E19A2EF3E0BF2EE7
:107E6000A2D0813461F49FD0082FAFD0023811F036
:107E7000013811F484E001C083E08DD089C08234E0
:107E800011F484E103C0853419F485E0A6D080C0E4
:107E9000853579F488D0E82EFF2485D0082F10E0AE
:107EA000102F00270E291F29000F111F8ED06801E7
:107EB0006FC0863521F484E090D080E0DECF843638
:107EC00009F040C070D06FD0082F6DD080E0C81688
:107ED00080E7D80618F4F601B7BEE895C0E0D1E017
:107EE00062D089930C17E1F7F0E0CF16F0E7DF06D8
:107EF00018F0F601B7BEE89568D007B600FCFDCFD4
:107F0000A601A0E0B1E02C9130E011968C91119780
:107F100090E0982F8827822B932B1296FA010C0160
:107F200087BEE89511244E5F5F4FF1E0A038BF0790
:107F300051F7F601A7BEE89507B600FCFDCF97BE46
:107F4000E89526C08437B1F42ED02DD0F82E2BD052
:107F50003CD0F601EF2C8F010F5F1F4F84911BD097
:107F6000EA94F801C1F70894C11CD11CFA94CF0C13
:107F7000D11C0EC0853739F428D08EE10CD085E9AC
:107F80000AD08FE07ACF813511F488E018D01DD067
:107F900080E101D065CF982F8091C00085FFFCCF94
:107FA0009093C60008958091C00087FFFCCF809118
:107FB000C00084FD01C0A8958091C6000895E0E648
:107FC000F0E098E1908380830895EDDF803219F02E
:107FD00088E0F5DFFFCF84E1DECF1F93182FE3DFCA
:107FE0001150E9F7F2DF1F91089580E0E8DFEE27F6
:047FF000FF270994CA
:027FFE00040479
:00000001FF
